:100000000C94F1020C94B83E0C948D3E0C94623E1C
:100010000C94373E0C940C3E0C94E13D0C94B63D90
:100020000C948B3D0C94433F0C94433F0C94433F02
:100030000C9422030C9422030C9422030C942203AC
:100040000C9422030C9413400C9422030C9422036E
:100050000C9422030C9422030C9422030C94413D33
:100060000C9422030C940D3F0C94E33E0C94220359
:100070000C9422030C9422030C9422030C9422036C
:100080000C94BF3F0C9422030C9422030C94220383
:100090000C9422030C9422030C9422030C9422034C
:1000A0000C9422030C9422030C9422030C9422033C
:1000B0000C9422030C9422030C9422030C9422032C
:1000C0000C9422030C9422030C9422030C9422031C
:1000D0000C9422030C9422030C9422030C9422030C
:1000E0000C942203084AD73B3BCE016E84BCBFFD73
:1000F000C12F3D6C74319ABD56833DDA3D00C77FF8
:1001000011BED9E4BB4C3E916BAAAABE0000008090
:100110003F05A84CCDB2D44EB93836A9020C50B91F
:10012000918688083CA6AAAA2ABE000000803F004B
:100130000C942D4D0C94A31F0C94BC200C94494C92
:100140000C94940A0C94741E0C94C81F0C94704563
:100150000C94D34D0C9465320C948D210C94701E2C
:100160000C944C150C9426200C94491E0C94674E4C
:100170000C94764C0C94B4090C945E140C949D1F52
:100180000C945B4D0C943A4C0C94C20A0C940C4D9C
:100190000C94994E0C9471130C9426210C94EF201E
:1001A0000C94651E0C9452450C9492090C94674C67
:1001B0000C946E0D0C947C450C947E1E0C94224D78
:1001C0000C949C210C947C210C94B9120C948E13E9
:1001D0000C94944C0C9456150C94A34C0C94ED1464
:1001E0000C9424080C940A130C944C450C947A1E1D
:1001F0000C94761E0C94B5320C9483090C948245B1
:100200000C940B080C94504D0C946C1E0C940733FA
:100210000C94540C0C94C2130C948B210C949809DC
:100220000C9478210C94CA320C941E1E0C94861ED9
:100230000C94884E0C9446450C94E10B0C94950A52
:100240000C9423120C94AD320C9464140C94584505
:100250000C94724E0C94691E0C9459200C949621A7
:100260000C946D4D0C9423150C94291F0C94C120F3
:100270000C9476200C94671E0C94BE090C94B32049
:100280000C948B090C9494130C94B8090C94870962
:100290000C94541E0C94B0090C944B4B0C94854C4C
:1002A0000C94F4120C94164E0C94C2090C943A213E
:1002B0000C942A280C940E1C0C947F4D0C94AE4D7B
:1002C0000C94F9310C94C34A0C94594B0C946D1E48
:1002D0000C944E210C94D91F0C9454140C94174D6B
:1002E0000C9492100C94A34D0C9476130C94EC3156
:1002F0000C942B0B0C94C51F0C943E0C0C947D4E4F
:100300000C9493210C94624B0C94384D0C94DF2088
:100310000C9495160C940D210C94821E0C944F1382
:100320000C94611E0C944B140C9476450C945F282D
:100330000C94914D0C946B140C946A450C94DC1243
:100340000C9453210C9420200C94C64A0C94AA09B6
:100350000C94A6090C940C4C0C94F9200C94AC133E
:100360000C942D130C94BD090C94454D0C946514FC
:100370000C94E5130C94780B0C94B24C0C945544EB
:100380000C94A2090C94D04C0C94FD4C0C94B332F8
:100390000C9444210C9403210C94D5200C94AF327E
:1003A0000C94C90B0C94894B0C941F080C94393392
:1003B0000C9404200C94F61E0C94E8440C94F81E43
:1003C0000C949C090C94D10A0C94EE4C0C940714D8
:1003D0000C948F090C9440400C94174B0C94B11260
:1003E0000C9428080C94E2310C942B4C0C9481163C
:1003F0000C94E7200C9484130C94A91F0C948C216A
:100400000C94C24D0C947B130C94F30A0C94461478
:100410000C94E50A0C9450200C94C0280C940145CF
:100420000C941D460C94C14C0C942E200C94E20BA1
:100430000C94DF150C946E140C94934E0C947D095F
:100440000C941C210C9441140C94CB200C94644506
:100450000C94FA180C94F41E0C945E450C9424161B
:100460000C94731E0C946B1E0C94D01F0C948A2158
:100470000C94584C0C94B1320C94DF4C0C943A45CB
:100480000C9430214E414E494E495459494E46CD67
:10049000CCCC3D0AD7233C17B7D13877CC2B32953B
:1004A00095E6241FB14F0A000020410000C8420019
:1004B000401C4620BCBE4CCA1B0E5AAEC59D7400E3
:1004C0000020002300260029002C002F003200000D
:1004D000010000030106010901000021002400279A
:1004E000002A002D00300033000101000004010744
:1004F000010A0100002200250028002B002E0031F7
:1005000000340002010000050108010B010505058A
:1005100005070508080808020202020A0A0808047A
:1005200004040401010101010101010303030303A8
:10053000030303040707070C0C0C0C0C0C0C0C0237
:1005400002020206060606060606060B0B0B0B0B3E
:100550000B0B0B0102102020080810204010204037
:100560008002010201080402010102040810204077
:100570008080402010080402018004020180402095
:1005800010080402010804020101020408102040BE
:1005900080010204081020408000000A0B02090CB0
:1005A0000D0E080703040100000000000000000019
:1005B000000000000000000000000000000000003B
:1005C00000000000001211100000000000000000F8
:1005D000000000000000000000000000000000001B
:1005E000404011241FBECFEFD1E2DEBFCDBF00E0FF
:1005F0000CBF12E1A0E0B2E0E8E7FFEB00E00BBFC8
:1006000002C007900D92A03DB107D9F72FE1A0EDF0
:10061000B2E101C01D92AC3AB207E1F712E0C1EFBE
:10062000D2E000E006C021970109802FFE010E9460
:100630000E5CC03FD10780E00807A9F70E94C441C3
:100640000C94BA5F0C940000EBE1F4E180E090E0E0
:10065000A0EAB2E480839183A283B38384839583E9
:10066000A683B78380E090E0A8ECB3E4808791870D
:10067000A287B38788E599E3AEE8B1E484879587DC
:10068000A687B78780E090E4ACE9B5E4808B918BD6
:10069000A28BB38B848B958BA68BB78B80E090E07D
:1006A000AAE7B4E4808F918FA28FB38F40E050E02F
:1006B00061E675E4448F558F668F778F40E050E098
:1006C0006AEF73E440A351A362A373A34AE057ED1A
:1006D00063E27CE344A355A366A377A340E050E024
:1006E00066E973E440A751A762A773A744A755A77B
:1006F00066A777A740E050E060E271E440AB51AB01
:1007000062AB73AB40E050E064EB73E444AB55ABD9
:1007100066AB77AB80AF91AFA2AFB3AF80E090E0B4
:10072000A8ECB2E484AF95AFA6AFB7AF80E090E09D
:10073000A0E4B0E480935B1490935C14A0935D14E8
:10074000B0935E1410925F1482E3809360148EE184
:100750008093611486E48093621486E990E090931C
:1007600064148093631480E8809365141092661477
:1007700010926714109268141092691410926A14FF
:1007800010926B1480E293E090936D1480936C143C
:1007900080E991E090936F1480936E1480E190E073
:1007A000909371148093701481E08093721483E0AD
:1007B00080937314809374141092751410927614AD
:1007C00008950F931F93CF93DF938C01C2E5D3E17C
:1007D00088819981DC01ED91FC91EC5BFF4F0190E8
:1007E000F081E02D67EA73E0199588819981DC0139
:1007F000ED91FC91EC5BFF4F0190F081E02DB80191
:10080000199588819981DC01ED91FC91EA5BFF4F9C
:100810000190F081E02D6CE077E0DF91CF911F91A6
:100820000F9119948091521390915313DC01ED9123
:10083000FC91EA5BFF4F0190F081E02D6EEA73E0DE
:100840001994CF938091521390915313DC01ED9141
:10085000FC9106A8F7A9E02D70E060E0199560937F
:100860001B1470931C1480931D1490931E1480917C
:10087000521390915313DC01ED91FC9106A8F7A956
:10088000E02D64E070E0199560931F1470932014BC
:1008900080932114909322148091521390915313BA
:1008A000DC01ED91FC9106A8F7A9E02D68E070E06D
:1008B00019956093231470932414809325149093B6
:1008C00026148091521390915313DC01ED91FC9109
:1008D00006A8F7A9E02D6CE070E019956093271445
:1008E000709328148093291490932A1480915213A2
:1008F00090915313DC01ED91FC9106A8F7A9E02D2E
:1009000060E170E0199560932B1470932C14809320
:100910002D1490932E148091521390915313DC0157
:10092000ED91FC9106A8F7A9E02D64E170E019951E
:1009300060932F1470933014809331149093321479
:100940008091521390915313DC01ED91FC9106A814
:10095000F7A9E02D68E170E0199560933314709366
:1009600034148093351490933614809152139091DF
:100970005313DC01ED91FC9106A8F7A9E02D6CE181
:1009800070E019956093371470933814809339147C
:1009900090933A148091521390915313DC01ED918E
:1009A000FC9106A8F7A9E02D60E270E0199560932C
:1009B0003B1470933C1480933D1490933E148091AB
:1009C000521390915313DC01ED91FC9106A8F7A905
:1009D000E02D64E270E0199560933F147093401429
:1009E0008093411490934214809152139091531329
:1009F000DC01ED91FC9106A8F7A9E02D68E270E01A
:100A00001995609343147093441480934514909304
:100A100046148091521390915313DC01ED91FC9197
:100A200006A8F7A9E02D6CE270E0199560934714D1
:100A3000709348148093491490934A1480915213F0
:100A400090915313DC01ED91FC9106A8F7A9E02DDC
:100A500060E370E0199560934B1470934C1480938D
:100A60004D1490934E148091521390915313DC01C6
:100A7000ED91FC9106A8F7A9E02D64E370E01995CB
:100A80006093531470935414809355149093561498
:100A90008091521390915313DC01ED91FC9106A8C3
:100AA000F7A9E02D68E370E01995609357147093EF
:100AB00058148093591490935A1480915213909122
:100AC0005313DC01ED91FC9106A8F7A9E02D6CE32E
:100AD00070E0199560935B1470935C1480935D14BF
:100AE00090935E148091521390915313DC01ED9119
:100AF000FC9102A8F3A9E02D60E470E019958093C1
:100B00005F148091521390915313DC01ED91FC918D
:100B100002A8F3A9E02D61E470E0199580936014B8
:100B20008091521390915313DC01ED91FC9102A836
:100B3000F3A9E02D62E470E019958093611480912F
:100B4000521390915313DC01ED91FC9102A8F3A98B
:100B5000E02D63E470E01995809362148091521344
:100B600090915313DC01ED91FC9102A8F3A9E02DC3
:100B700064E470E01995C82F80915213909153133B
:100B8000DC01ED91FC9102A8F3A9E02D65E470E091
:100B90001995982F8C2F90936414809363148091EF
:100BA000521390915313DC01ED91FC9102A8F3A92B
:100BB000E02D66E470E019958093651480915213DE
:100BC00090915313DC01ED91FC9102A8F3A9E02D63
:100BD00067E470E0199580936614809152139091A8
:100BE0005313DC01ED91FC9102A8F3A9E02D68E418
:100BF00070E0199591E0811101C090E09093671425
:100C00008091521390915313DC01ED91FC9102A855
:100C1000F3A9E02D69E470E0199591E0811101C01C
:100C200090E0909368148091521390915313DC01DB
:100C3000ED91FC9102A8F3A9E02D6AE470E019950A
:100C400091E0811101C090E090936914809152135A
:100C500090915313DC01ED91FC9102A8F3A9E02DD2
:100C60006BE470E0199591E0811101C090E09093E0
:100C70006A148091521390915313DC01ED91FC9111
:100C800002A8F3A9E02D6CE470E0199580936B1431
:100C90008091521390915313DC01ED91FC9102A8C5
:100CA000F3A9E02D6DE470E01995C82F80915213DF
:100CB00090915313DC01ED91FC9102A8F3A9E02D72
:100CC0006EE470E01995982F8C2F90936D1480939B
:100CD0006C148091521390915313DC01ED91FC91AF
:100CE00002A8F3A9E02D6FE470E01995C82F809158
:100CF000521390915313DC01ED91FC9102A8F3A9DA
:100D0000E02D60E570E01995982F8C2F90936F146B
:100D100080936E148091521390915313DC01ED91E6
:100D2000FC9102A8F3A9E02D61E570E01995C82FA8
:100D30008091521390915313DC01ED91FC9102A824
:100D4000F3A9E02D62E570E01995982F8C2F909310
:100D50007114809370148091521390915313DC019D
:100D6000ED91FC9102A8F3A9E02D63E570E01995DF
:100D700091E0811101C090E0909372148091521320
:100D800090915313DC01ED91FC9102A8F3A9E02DA1
:100D900064E570E0199580937314809152139091DB
:100DA0005313DC01ED91FC9102A8F3A9E02D65E558
:100DB00070E019958093741480915213909153139D
:100DC000DC01ED91FC9102A8F3A9E02D66E570E04D
:100DD0001995809375148091521390915313DC01EF
:100DE000ED91FC9102A8F3A9E02D67E570E019955B
:100DF00080937614CF9108952F923F924F925F92F5
:100E00006F927F928F929F92AF92BF92CF92DF921A
:100E1000EF92FF920F931F93CF93DF9300D000D0F8
:100E2000CDB7DEB7382E29833A834B835C83270105
:100E30003801DE82CD828501A82FB0E0FD01E7599F
:100E4000FC4F20808091521390915313AB59BC4FAB
:100E5000FC0120813181F90120853185462F6C917B
:100E6000F90119958091521390915313DC01ED9182
:100E7000FC91E25AFF4F0190F081E02D49E150E0F2
:100E800060E070E0199520E030E040EA52E46981CA
:100E90007A818B819C810E94D8579B01AC0160E0D4
:100EA00074E284E799E40E940D5A0E94865A6431E4
:100EB00071058105910520F464E170E080E090E027
:100EC000C12CD12C76014B015C01B3E08B1A910847
:100ED000A108B108C414D504E604F70409F451C00C
:100EE0008091831581114DC0ED81FE81EF2B09F0BA
:100EF00040C08091521390915313DC01ED91FC910D
:100F00000084F185E02D41E0622D19958091521306
:100F100090915313DC01ED91FC91E25AFF4F019047
:100F2000F081E02D43E050E060E070E019958091A1
:100F3000521390915313DC01ED91FC910084F185E3
:100F4000E02D40E0622D199580915213909153133A
:100F5000DC01ED91FC91E25AFF4F0190F081E02D10
:100F6000B501A4011995BFEFCB1ADB0AEB0AFB0A06
:100F7000B1CFB801832DED81FE811995882309F445
:100F8000B8CF26960FB6F894DEBF0FBECDBFDF9167
:100F9000CF911F910F91FF90EF90DF90CF90BF9076
:100FA000AF909F908F907F906F905F904F903F9009
:100FB0002F900895CF938091521390915313DC0199
:100FC000ED91FC910284F385E02D63E01995C82F23
:100FD0008091521390915313DC01ED91FC910284A6
:100FE000F385E02D6EE0199591E0C927811101C0CC
:100FF000C4608091521390915313DC01ED91FC91E8
:101000000284F385E02D62E11995811101C0C06170
:101010008C2FCF910895CF93C82F0E94DA07C1304B
:1010200051F030F082958170C23019F080E001C03B
:101030008170CF91089582FB882780F9FACF0E94B2
:101040000B0891E08927089581E08093511308955A
:101050008091511308953F924F925F926F927F92C9
:101060008F929F92AF92BF92CF92DF92EF92FF92B8
:101070000F931F93CF93DF93CDB7DEB764970FB66F
:10108000F894DEBF0FBECDBFFC016B014A018B019E
:10109000CA019B01205F3F4FD8014D915D916D9139
:1010A0007D918D01DC014D935D936D937D93CD0119
:1010B0000217130789F78E010F5F1F4F80E1D801D8
:1010C0001D928A95E9F7198A1A8A1B8A1C8A80A9B7
:1010D000882351F084819581A681B78189839A8381
:1010E000AB83BC8381E0898B81A9882351F0808503
:1010F0009185A285B3858D839E83AF83B88781E078
:101100008A8B82A9882351F084859585A685B78529
:1011100089879A87AB87BC8781E08B8B83A98823DB
:1011200051F080899189A289B3898D879E87AF8785
:10113000B88B81E08C8B80919C1F882321F1FE016C
:1011400071965F0178013E01F5E16F0E711CD501CA
:101150008D915D01882389F023E333E34BEC51E467
:10116000F70160817181828193810E94D857D701F4
:101170006D937D938D939C931397B4E0EB0EF11CCC
:10118000A614B70421F730909B1FFE0171962F0122
:10119000F12CE12CD2018D912D01882311F1F80160
:1011A000608171818281938134016E0C7F1C3320B8
:1011B000C9F1970129573A4E5901D9012D913D9115
:1011C0004D915C910E941359F50120893189428922
:1011D00053890E941359D3016D937D938D939C93F2
:1011E00013970C5F1F4FF4E0EF0EF11C20E1E216A5
:1011F000F10481F664960FB6F894DEBF0FBECDBF42
:10120000DF91CF911F910F91FF90EF90DF90CF90E2
:10121000BF90AF909F908F907F906F905F904F9016
:101220003F9008959B01AC01F601EE0DFF1D60811A
:101230007181828193810E941359F30160837183CC
:1012400082839383CECFA0915213B0915313ED912B
:10125000FC911197EA5BFF4F0190F081E02DBC01FA
:10126000CD0119940F931F93CF93DF93582FFC0157
:1012700080E077E0919148E0282F30E0A92FB0E09E
:101280008901000F012F001F110B9170C92F90E0F1
:10129000D92F880F0C171D0721F0C901880F991F3E
:1012A0008727B595A7959A2F415031F79E2F951B0B
:1012B000961700F3DF91CF911F910F910895815000
:1012C000823108F05AC0E82FF0E08827E559F64F40
:1012D0008F4F0C940E5C8B098F097D098309870958
:1012E000BD09920998099C09A209A609AA09B00991
:1012F000B409BD09B809BE09C209809180008F7781
:10130000809380000895809180008F7DF9CF809137
:101310008000877FF5CF84B58F7784BD089584B52D
:101320008F7DFBCF8091B0008F778093B0000895C0
:101330008091B0008F7DF9CF809190008F7780935E
:1013400090000895809190008F7DF9CF809190005A
:10135000877FF5CF8091A0008F778093A0000895BC
:101360008091A0008F7DF9CF8091A000877FF5CF7D
:10137000809120018F778093200108958091200132
:101380008F7DF9CF80912001877FF5CF1F93CF9379
:10139000DF93282F30E0F901E756FA4F8491F901E5
:1013A000ED5AFA4FD491F901E35FFA4FC491CC237F
:1013B000A9F0162F81110E945F09EC2FF0E0EE0FCB
:1013C000FF1FED50FB4FA591B4918FB7F894EC91AE
:1013D000111108C0D095DE23DC938FBFDF91CF9130
:1013E0001F910895DE2BF8CFCF93DF9390E0FC019F
:1013F000ED5AFA4F2491835F9A4FFC018491882320
:10140000C9F090E0880F991FFC01E752FB4FA591AE
:10141000B491FC01ED50FB4FC591D49161110DC009
:101420009FB7F8948C91209582238C9388812823F0
:1014300028839FBFDF91CF910895623051F49FB709
:10144000F8943C91822F809583238C93E8812E2BF6
:10145000EFCF8FB7F894EC912E2B2C938FBFEACF60
:101460003FB7F89480914D1390914E13A0914F1374
:10147000B091501326B5A89B05C02F3F19F00196D7
:10148000A11DB11D3FBFBA2FA92F982F8827BC01DE
:10149000CD01620F711D811D911D42E0660F771F06
:1014A000881F991F4A95D1F708958F929F92AF9206
:1014B000BF92CF92DF92EF92FF926B017C010E946C
:1014C000300A4B015C01C114D104E104F104B9F00C
:1014D0000E94300A681979098A099B09683E73409D
:1014E0008105910580F321E0C21AD108E108F108D5
:1014F00088EE880E83E0981EA11CB11CE4CFFF90FB
:10150000EF90DF90CF90BF90AF909F908F90089515
:101510002FB7F8946091491370914A1380914B133F
:1015200090914C132FBF08950895AF92BF92CF9220
:10153000DF92EF92FF920F931F93CF93DF936C0193
:101540007B018B01040F151FEB015E01AE18BF0874
:10155000C017D10759F06991D601ED91FC91019026
:10156000F081E02DC6011995892B79F7C501DF912E
:10157000CF911F910F91FF90EF90DF90CF90BF9090
:10158000AF900895FC01538D448D252F30E0842FBA
:1015900090E0821B930B541710F0CF96089501979B
:1015A0000895FC01918D828D981761F0A28DAE0F88
:1015B000BF2FB11D5D968C91928D9F5F9F73928F0F
:1015C00090E008958FEF9FEF0895FC01918D828D3B
:1015D000981731F0828DE80FF11D858D90E0089508
:1015E0008FEF9FEF0895FC01918D228D892F90E060
:1015F000805C9F4F821B91098F739927089584E522
:1016000093E10E94F30A21E0892B09F420E0822F64
:101610000895FC01A48DA80FB92FB11DA35ABF4F87
:101620002C91848D90E001968F739927848FA689E1
:10163000B7892C93A089B1898C91837080648C9335
:10164000938D848D981306C00288F389E02D8081E4
:101650008F7D80830895EF92FF920F931F93CF9316
:10166000DF93EC0181E0888F9B8D8C8D98131AC0DD
:10167000E889F989808185FF15C09FB7F894EE89C4
:10168000FF896083E889F989808183708064808321
:101690009FBF81E090E0DF91CF911F910F91FF906C
:1016A000EF900895F62E0B8D10E00F5F1F4F0F7314
:1016B0001127E02E8C8D8E110CC00FB607FCFACFCF
:1016C000E889F989808185FFF5CFCE010E94090B59
:1016D000F1CFEB8DEC0FFD2FF11DE35AFF4FF082A0
:1016E0009FB7F8940B8FEA89FB8980818062CFCF06
:1016F000CF93DF93EC01888D8823B9F0AA89BB8949
:10170000E889F9898C9185FD03C0808186FD0DC033
:101710000FB607FCF7CF8C9185FFF2CF808185FF54
:10172000EDCFCE010E94090BE9CFDF91CF91089553
:1017300080E090E0892B29F00E94FF0A81110E942D
:10174000000080E090E0892B49F080E090E0892B58
:1017500029F00E94000081110E94000080E090E0CA
:10176000892B49F080E090E0892B29F00E9400004D
:1017700081110E94000080E090E0892B49F080E018
:1017800090E0892B29F00E94000081110C94000048
:10179000089520911D1330911E132817390771F4F5
:1017A00090911C1380911B13981741F0E0911C132A
:1017B000F0E0E552FD4E808190E008958FEF9FEFBD
:1017C00008950895EF92FF920F931F93CF93DF93A5
:1017D000DC015C96ED90FC905D97E114F10479F4E6
:1017E00081E090E013969C938E93129790E080E0B6
:1017F000DF91CF911F910F91FF90EF900895519637
:10180000ED91FC91529750968C915097982F90950E
:101810000FB75E962C915E97122F127021FD609586
:10182000F8942081112319F1282B2083E7012197B7
:10183000F1F728E0462F50E0308160FF1AC0382BC6
:101840003083E7012197F1F7BA017595679521502B
:1018500089F7112381F08081892380830FBF5C96F3
:101860008D919C910197F1F781E090E0C1CF292300
:10187000DCCF3923E5CF9081892BEFCF20911D1349
:1018800030911E132817390761F480911B132091A2
:101890001C1390E0805C9F4F821B91098F739927E6
:1018A000089590E080E0089520911D1330911E135B
:1018B00028173907B9F490911C1380911B139817BE
:1018C00089F0E0911C13F0E0E552FD4E80812091FB
:1018D0001C1330E02F5F3F4F2F73332720931C13CF
:1018E00090E008958FEF9FEF0895E0911D13F09120
:1018F0001E13E817F90769F4A389B4899C918589B7
:10190000809589238C9310921E1310921D1381E0F1
:10191000089580E00895CF93DF93EC018A8D9B8D2D
:10192000892B01F180911D1390911E138C179D0737
:10193000C9F0009711F00E94750C8E8D8E7F8E8FEE
:1019400010921B1310921C13D0931E13C0931D13DF
:10195000EB89FC8980819D89892B808381E0DF91DF
:10196000CF91089580E0FBCFCF93DF93EC019A01F4
:10197000AB011B8E1A8E198E188E1F8A1E8A60E08C
:1019800079E08DE390E00E94AF58B901C901039757
:101990002430310510F481E090E09D8F8C8F8C8590
:1019A00096EF980F943048F0EEECE80FE43028F012
:1019B000E2ECE80FE83008F069C0F901F695E79528
:1019C000E431F10508F467C07397FF8BEE8B663046
:1019D000710508F463C0B90165507109798F688F8A
:1019E000B901660F771F260F371F36952795369555
:1019F00027952D30310508F454C02C5031093B8F08
:101A00002A8F943050F02EEC280F243030F022EC46
:101A1000280FF0E0E0E0283010F4E8E6F0E0208164
:101A2000943028F032EC380F383008F43DC031E003
:101A3000232B943048F09EEC980F943028F08E536E
:101A4000F0E0E0E0883010F4E8E6F0E020832C8558
:101A500036EF320F343050F18EEC820F843030F19B
:101A600082EC820F883028F190E080E09C8B8B8B99
:101A7000343010F52650330B81E001C0880F2A95D1
:101A8000EAF78D8B8C8D9D8D0197F1F7CE01DF915B
:101A9000CF910C948B0CE1E0F0E097CF61E070E027
:101AA0009DCF21E030E0ABCF34E0C2CF8BE690E0B9
:101AB000DDCF8DE690E0DACF88E0223311F384E0C9
:101AC0002333F9F282E02433E1F282EC820F883092
:101AD00018F42E53330BD0CF81E0D3CF90E080E0C9
:101AE00008956031710509F441C088F462307105D0
:101AF00009F454C020F4672B09F458C008956430E9
:101B0000710509F443C068307105C1F1089560346E
:101B10007105E1F020F46032710501F1089560383B
:101B2000710561F06115714009F048C0DC01ED916B
:101B3000FC910288F389E02D60E01994DC01ED91BD
:101B4000FC910288F389E02D61E0F7CFDC01ED9193
:101B5000FC910288F389E02D62E0EFCFDC01ED918A
:101B6000FC910288F389E02D63E0E7CFDC01ED9181
:101B7000FC910288F389E02D64E0DFCFDC01ED9178
:101B8000FC910288F389E02D65E0D7CFDC01ED916F
:101B9000FC910288F389E02D66E0CFCFDC01ED9166
:101BA000FC910288F389E02D67E0C7CFDC01ED915D
:101BB000FC910288F389E02D68E0BFCF0895CF92B1
:101BC000DF92EF92FF921F93CF93DF93EC0190E0AF
:101BD00080E00E94775725ED34E045E352E40E940F
:101BE000D85720E030E04AE754E40E940D5A6B01D8
:101BF0007C012AE037ED43EA5CE369857A858B85D1
:101C00009C850E941359A70196010E94D85726E689
:101C100036E646EA5EE30E940D5A20E030E040E8F6
:101C20005FE30E9412590E94865A162FE881F981BB
:101C30000480F581E02D603108F060C061E0CE01E4
:101C400019952AE037ED43EA5CE369857A858B854F
:101C50009C850E941359A70196010E94D8572CEE2B
:101C600031E548E35EE30E940D5A20E030E040E8B1
:101C70005FE30E9412590E94865A162F103208F014
:101C80001FE1912F9F718B81807E892B8B832A810D
:101C9000382F8C81482F4F7050E0E881F9810190F6
:101CA000F081E02D60E1CE011995612F70E090E0A8
:101CB00080E00E9479572D853E854F8558890E9486
:101CC000D8570E94865A862F8F716A81607E682B52
:101CD0006A83262F3B818C81482F4F7050E0E8812A
:101CE000F9810190F081E02D60E1CE01DF91CF918B
:101CF0001F91FF90EF90DF90CF90199460E0CE019C
:101D00001995BCCFFC01A4A5B5A5109749F0ED919C
:101D1000FC9111970190F081E02DCD011995089566
:101D200082A593A5009739F0DC01ED91FC9101901B
:101D3000F081E02DF3CF80E00895FC01A4A5B5A5C6
:101D4000109741F0ED91FC9111970284F385E02DFD
:101D5000CD01199482A593A5009739F0DC01ED918E
:101D6000FC910284F385E02DF4CF90E080E00895AB
:101D7000FC01A4A5B5A5109741F0ED91FC91119738
:101D80000084F185E02DCD01199482A593A50097DB
:101D900039F0DC01ED91FC910084F185E02DF4CF68
:101DA00090E080E00895CF93DF93EC018CA59DA592
:101DB000009751F040E052EC61E070E00E94B40CFA
:101DC0008CA59DA50E94750C8EA59FA5009739F046
:101DD00061E00E94C60961E08EA50E94F409888D29
:101DE0008064888F282F898D382F337050E040E031
:101DF000E881F9810190F081E02D60E0CE01199534
:101E0000888D8068888F282F898D382F337050E017
:101E100040E0E881F9810190F081E02D60E0CE01A1
:101E2000DF91CF911994CF92DF92EF92FF920F93AF
:101E30001F93CF93DF93EC018B0120E03FEF4FE73F
:101E400057E469857A858B859C850E94D8570E94C6
:101E5000865A9B01A1E4BDE20E940359272F382F27
:101E6000492F5527D8010E94CE586B017C011FE1F4
:101E7000A12FB0E011962EEF34E441E050E00E9433
:101E8000D9589B01AC01C701B6010E94E1582F3F10
:101E900031054105510511F008F05AC020383105CF
:101EA0004105510508F41150DA01C9010197A10952
:101EB000B1098F379105A105B105D0F2103208F0B4
:101EC0001FE12CAFE881F9810190F081E02D6BE0FA
:101ED000CE011995912F9F718B81807E892B8B83E9
:101EE0002A81382F8C81482F4F7050E0E881F9818A
:101EF0000190F081E02D60E1CE011995612F70E035
:101F000090E080E00E9479572D853E854F85588965
:101F10000E94D8570E94865A862F8F716A81607EF0
:101F2000682B6A83262F3B818C81482F4F7050E0AD
:101F3000E881F9810190F081E02D60E1CE01DF912F
:101F4000CF911F910F91FF90EF90DF90CF90199458
:101F500020E030E0A901A8CF1F93CF93DF93DC01ED
:101F6000D396ED91FC91309709F45BC0A585B685B9
:101F70009C918085809589238C9327E030E070E0E8
:101F8000A62FB0E0122FC185D2859681AD01022E19
:101F900002C0559547950A94E2F7888140FF3BC0FF
:101FA000982B9883C585D68588819085892B8883D1
:101FB000C385D48588819781892341E050E009F465
:101FC00040E001C0440F1A95EAF7742BC585D68509
:101FD000888190859095982398832150310991F6B6
:101FE000A185B28596818C9160FF18C0982B9C9337
:101FF000A585B6858C919085892B8C93A385B48516
:102000009C918781982381E009F480E0872BDF9100
:10201000CF911F91089590959823C3CF90959823C1
:10202000E6CF6EBD00000DB407FEFDCF8EB5EFCF3D
:102030000F931F93CF93DF938C01D62FC0E060E006
:10204000C8010E94AC0FCF5FDC13F9CFDF91CF91B5
:102050001F910F9108950895FC0181A90C94C60960
:10206000CF93DF93EC0161E088810E94F40961E085
:102070008C810E94F40962E08A810E94F4094881FF
:102080005981FA01E35FFA4FE491F0E0EE0FFF1F90
:10209000ED50FB4F859194919A8789872A813B81E6
:1020A000F901E35FFA4FE491F0E0EE0FFF1FE15416
:1020B000FB4F859194919C878B876C817D81FB017F
:1020C000E35FFA4F8491E82FF0E0EE0FFF1FED5031
:1020D000FB4FA591B491BE87AD87FA01ED5AFA4F37
:1020E000E491EE83F901ED5AFA4FE491EF83FB019D
:1020F000ED5AFA4FE491E8876C91E62BEC93DF916F
:10210000CF910895CF93DF93EC016C81617088814A
:102110000E94C6096C81669561708A81DF91CF91BA
:102120000C94C6092F923F924F925F926F927F92CA
:102130008F929F92AF92BF92CF92DF92EF92FF92D7
:102140000F931F93CF93DF93CDB7DEB761970FB691
:10215000F894DEBF0FBECDBF1C011C861B8685E038
:102160008987F10182A98A876B8763E0CE0109968E
:102170000E9432098C87F2E0F98B9E01235F3F4F6A
:102180003E872D87F10184A595A5009761F00E94F7
:102190008B0CC1010E94B80E181619067CF4C101FF
:1021A0000E949D0EF6CF82A593A5892B91F380A95D
:1021B00091A9009771F30E948210EBCFF10186A5DF
:1021C00097A5009741F061E00E94C60961E0F10126
:1021D00086A50E94F4098E01075F1F4FF8016191E7
:1021E0008F01C1010E94820E2D853E8502171307C3
:1021F000A9F7F10186A597A5009719F062E00E9462
:10220000F40962E070E080E090E00E94550A0E94CC
:10221000880A2B013C018985CB84D12CF12CE12C3F
:10222000DD24DA94E82A812C912C540105E010E099
:102230000E94880A641575058605970531F00150DE
:10224000110909F474C02B013C01C1010E949D0ECB
:1022500097FD0FC07A2D692D582D44274C019924E4
:10226000092C000CAA08BB08842A952AA62AB72A9A
:10227000BB24C814D904EA04FB04D1F626013701B3
:10228000812C912C54010E94880A6B017C0125E06D
:1022900030E0388B2F8710E00E94880A6C157D058E
:1022A0008E059F0549F0EF85F8893197F88BEF8708
:1022B000EF2BE9F16B017C01C1010E949D0EDC0155
:1022C00097FD1CC09201A301B401C50108E00E9462
:1022D000165CBB27EB2FEE0FEE0B422E4A2A532E35
:1022E0005B2A6E2E642A7E2E752A8E2E862A9E2EBC
:1022F000972AAE2EA82ABE2EB92A1F5F153061F686
:10230000F10186A597A5009741F061E00E94C609FA
:1023100061E0F10186A50E94F409C1010E94B80E96
:102320001816190664F4C1010E949D0EF6CF412CC7
:10233000512C612C712C812C912CA12CB12CF101F0
:1023400084A595A5009711F00E94750C62E070E0DD
:1023500080E090E00E94550AF101178A9201A301E2
:10236000B401C50108E30E94315C29839201A301F5
:10237000B401C50100E30E94315C2A839201A301EC
:10238000B401C50108E20E94315C2B839201A301D4
:10239000B401C50100E20E94315C2C839201A301CB
:1023A000B401C50108E10E94315C2D839201A301B3
:1023B000B401C50100E10E94315C2E839201A301AA
:1023C000B401C50108E00E94315C2F83488667E0B4
:1023D000CE0101960E943209481202C0411011C07C
:1023E00081E0F101878BF989F13019F021E0298B27
:1023F000C9CE412C512C612C712C812C912CA12CFB
:10240000B12C9201A301B401C50108E00E94315C26
:10241000B901CA0161960FB6F894DEBF0FBECDBFF9
:10242000DF91CF911F910F91FF90EF90DF90CF90B0
:10243000BF90AF909F908F907F906F905F904F90E4
:102440003F902F900895CF92DF92EF92FF920F93DB
:102450001F93CF93DF9300D000D01F921F92CDB770
:10246000DEB77C0118861F8285E08983F70182A987
:102470008A8360686B835C834D833E832F8367E030
:10248000CE0101960E9432098887F70182A593A5A3
:10249000892B31F080A991A9009711F00E94821038
:1024A0008E010F5F1F4F6E01F9E0CF0ED11CF801B6
:1024B00061918F01C7010E94820EF7012189328943
:1024C000820F932F911D928B818B0C151D0579F72F
:1024D00062E070E080E090E00E94550A28960FB616
:1024E000F894DEBF0FBECDBFDF91CF911F910F914A
:1024F000FF90EF90DF90CF900895DC0158964C91BB
:10250000589760FB42F958964C935897242F599648
:102510004C915997342F337050E040E0ED91FC918D
:102520000190F081E02D60E01994DC0152968C91CD
:10253000529760FB82F952968C935297282F5396AC
:102540003C91539754968C915497482F437050E088
:10255000ED91FC9111970190F081E02D60E0CD01AB
:102560001994DC01ED91FC910280F381E02D6FE67E
:102570001994DC01ED91FC910280F381E02D6FE66E
:102580001994DC016F7798964C9198974078462B78
:1025900098964C93989796962C91969797963C91EF
:1025A000979799965C9199975170ED91FC91019054
:1025B000F081E02D6DE61994262F2F70DC019596A1
:1025C0006C919597607F622B95966C9395979296F8
:1025D0002D913D914D915C919597ED91FC910190DC
:1025E000F081E02D6CE61994DC0194962C9194977F
:1025F00060FB21F994962C93949792962D913D919E
:102600004D915C919597ED91FC910190F081E02DB9
:102610006CE61994DC0193968C91939760FB87F993
:1026200093968C93939761FB882780F994966C918D
:1026300094976E7F682B94966C93949792962D91B5
:102640003D914D915C919597ED91FC911197019081
:10265000F081E02D6CE6CD011994DC0192968C910D
:10266000929760FB87F992968C9392976695677024
:1026700093968C919397887F682B93966C939397FE
:1026800092962D913D914D915C919597ED91FC9194
:1026900011970190F081E02D6CE6CD0119946770DF
:1026A000262F2295207FDC0192966C9192976F786D
:1026B000622B92966C93929792962D913D914D91AB
:1026C0005C919597ED91FC910190F081E02D6CE685
:1026D0001994DC01ED91FC910280F381E02D6CE610
:1026E00019940E946913892F8F7008950E946913AD
:1026F0008695817008950E946913771F7727771F49
:102700008170880F872B08950E946913862F881F78
:102710008827881F7770770F872B08950E94691389
:10272000862F829587700895262F2F70DC0195964D
:102730006C919597607F622B95966C939597929686
:102740002D913D914D915C919597ED91FC9101906A
:10275000F081E02D6CE61994DC0194962C9194970D
:1027600060FB21F994962C93949792962D913D912C
:102770004D915C919597ED91FC910190F081E02D48
:102780006CE61994DC0193968C91939760FB87F922
:1027900093968C93939761FB882780F994966C911C
:1027A00094976E7F682B94966C93949792962D9144
:1027B0003D914D915C919597ED91FC911197019010
:1027C000F081E02D6CE6CD011994DC0192968C919C
:1027D000929760FB87F992968C93929766956770B3
:1027E00093968C919397887F682B93966C9393978D
:1027F00092962D913D914D915C919597ED91FC9123
:1028000011970190F081E02D6CE6CD01199467706D
:10281000262F2295207FDC0192966C9192976F78FB
:10282000622B92966C93929792962D913D914D9139
:102830005C919597ED91FC910190F081E02D6CE613
:102840001994262F2F70DC0192966C919297607FDD
:10285000622B92966C93929792962D913D914D9109
:102860005C919597ED91FC910190F081E02D6CE6E3
:102870001994DC01ED91FC910280F381E02D6CE66E
:1028800019940E943914892F8F7008950E94391469
:102890008695817008950E943914771F7727771FD6
:1028A0008170880F872B08950E943914862F881F06
:1028B0008827881F7770770F872B08950E94391417
:1028C000862F8295877008950895FC016685778527
:1028D000808991890895FC01858508958F929F9242
:1028E000AF92BF92CF92DF92EF92FF920F931F931E
:1028F000CF93DF93EC016A017B0120E030E0A90176
:10290000CB01B6010E94725787FD4FC020E030E036
:102910004FE753E4C701B6010E945C5B18160CF444
:1029200048C0CB82DC82ED82FE828A81882309F452
:1029300047C06F8170E090E080E00E9477574B01C4
:102940005C010091521310915313688570E090E080
:1029500080E00E947757A50194010E941259A701B7
:1029600096010E94D85720E030E04FE753E40E94E0
:102970000D5AA50194010E9413590E94865A462FB0
:10298000D801ED91FC910288F389E02D6BE0C8013C
:10299000DF91CF911F910F91FF90EF90DF90CF903B
:1029A000BF90AF909F908F901994C12CD12C76013D
:1029B000B8CFC12CD12C8FE7E82E83E4F82EB1CF0D
:1029C000DF91CF911F910F91FF90EF90DF90CF900B
:1029D000BF90AF909F908F900895CF92DF92EF922B
:1029E000FF92CF93DF93EC016A017B0120E030E09E
:1029F000A901CB01B6010E94725787FD11C020E0EA
:102A000030E04FE753E4C701B6010E945C5B181643
:102A100054F4C12CD12C8FE7E82E83E4F82E03C0A8
:102A2000C12CD12C7601CE86DF86E88AF98AB701DF
:102A3000A601CE010296DF91CF91FF90EF90DF903B
:102A4000CF900C946E140F931F93CF93DF93EC01F0
:102A500002E513E1D8018D919C91DC01ED91FC918F
:102A60000288F389E02D4F816BE01995F801808190
:102A7000918149855A8570E060E0DC01ED91FC911F
:102A8000E45AFF4F0190F081E02D19951A82DF91F1
:102A9000CF911F910F910895CF93DF93EC01029690
:102AA0000E9423151D86DF91CF9108958F929F92EA
:102AB000AF92BF92CF92DF92EF92FF92CF93DF93CC
:102AC000EC016A017B0120E030E0A901CB01B601F5
:102AD0000E945C5B87FD18C020E030E0A901C701BF
:102AE000B6010E94725787FD5FC020E030E04FE7DB
:102AF00053E4C701B6010E945C5B18160CF458C081
:102B0000CB82DC82ED82FE826F8170E090E080E01B
:102B10000E9477574B015C01E0905213F0905313E1
:102B2000688570E090E080E00E947757A5019401ED
:102B30000E9412592B813C814D815E810E94D857A1
:102B400020E030E04FE753E40E940D5AA5019401C4
:102B50000E9413590E94865A462FD701ED91FC918D
:102B60000288F389E02D6BE0C7011995809152131B
:102B70009091531349855A8570E060E0DC01ED9136
:102B8000FC91E45AFF4F0190F081E02D199581E00E
:102B90008A83DF91CF91FF90EF90DF90CF90BF902D
:102BA000AF909F908F900895C12CD12C7601A8CF23
:102BB000C12CD12C8FE7E82E83E4F82EA1CFCF9241
:102BC000DF92EF92FF92CF93DF93EC016A017B01DA
:102BD00020E030E0A901CB01B6010E945C5B87FDDB
:102BE00017C020E030E0A901C701B6010E9472576A
:102BF00087FD1FC020E030E04FE753E4C701B60176
:102C00000E945C5B1816CCF0CE86DF86E88AF98AD3
:102C10004E855F8568897989CE0102960E94561596
:102C200081E08D87DF91CF91FF90EF90DF90CF9083
:102C30000895C12CD12C7601E7CFC12CD12C8FE780
:102C4000E82E83E4F82EE0CFCF92DF92EF92FF924E
:102C5000CF93DF93EC016A017B0120E030E0A90112
:102C6000CB01B6010E94725787FD39C020E030E0E9
:102C70004FE753E4C701B6010E945C5B18169CF154
:102C8000CB82DC82ED82FE828A81882399F1C09119
:102C90005213D091531320E030E048EC52E4C701C6
:102CA000B6010E94D85720E030E04FE753E40E947D
:102CB0000D5A20E030E0A9010E9413590E94865A63
:102CC000462FE881F9810484F585E02D69E0CE0185
:102CD000DF91CF91FF90EF90DF90CF901994C12CAE
:102CE000D12C7601CDCFC12CD12C8FE7E82E83E4F7
:102CF000F82EC6CFDF91CF91FF90EF90DF90CF906D
:102D00000895CF93DF93EC01809152139091531368
:102D1000DC01ED91FC910484F585E02D40E069E053
:102D200019951A82DF91CF910895CF92DF92EF9299
:102D3000FF92CF93DF93EC016A017B0120E030E04A
:102D4000A901CB01B6010E945C5B87FD18C020E0A1
:102D500030E0A901C701B6010E94725787FD5BC030
:102D600020E030E04FE753E4C701B6010E945C5B0E
:102D700018160CF454C0CB82DC82ED82FE82809166
:102D8000521390915313DC01ED91FC910484F5856D
:102D9000E02D4FEF69E019958091521390915313F4
:102DA000DC01ED91FC91E45AFF4F0190F081E02DA0
:102DB00042E350E060E070E01995E0905213F0902B
:102DC000531320E030E048EC52E46B817C818D812C
:102DD0009E810E94D85720E030E04FE753E40E94E4
:102DE0000D5A20E030E0A9010E9413590E94865A32
:102DF000462FD701ED91FC910484F585E02D69E023
:102E0000C701199581E08A83DF91CF91FF90EF9000
:102E1000DF90CF900895C12CD12C7601ACCFC12C7E
:102E2000D12C8FE7E82E83E4F82EA5CFAF92BF9286
:102E3000CF92DF92EF92FF920F931F93CF93DF9386
:102E40008C0190E080E00E9477576B017C01B80113
:102E500090E080E00E9477579B01AC01C701B6016A
:102E60000E940D5A6B017C018EE5A82E83E0B82EDE
:102E7000CFE1D3E1F50181915F019EEF980F94308E
:102E800090F4843021F1853029F18330E9F0888194
:102E90009981009741F0FC01C586D686E786F08AC5
:102EA000B8010E94DF0D2896F2E6AF16F3E0BF06E8
:102EB00009F7DF91CF911F910F91FF90EF90DF9075
:102EC000CF90BF90AF9008958A819B81E2CF8C8193
:102ED0009D81DFCF8E819F81009729F3FC01C586FC
:102EE000D686E786F08AB8010E94130FDCCF8F9256
:102EF0009F92AF92BF92DF92EF92FF920F931F9338
:102F0000CF93DF93C82FD0E0FE01E25AFC4FD08070
:102F10008DEF8D0D833008F061C1F62E00916C1499
:102F200010916D14E090721460916E1470916F1492
:102F300090E080E00E9477574B015C01B80190E07F
:102F400080E00E9477579B01AC01C501B4010E944B
:102F50000D5AAB01BC0183E0CC0FDD1F8A95E1F770
:102F600084E0D81609F47AC0A5E0C15EDC4EDA161A
:102F700009F4E3C08A819B81009709F42FC1FF20E7
:102F800009F442C064EF71E00E94DF0D8A819B81E9
:102F900022E3FC0126AB0190F081E02D0190F0814D
:102FA000E02D22E330E040E050E060E4199561E07C
:102FB0008A819B810E947D12AA81BB818FEFD3966B
:102FC0008C93D397D4968C93D497D5968C91D59790
:102FD0008F60D5968C93D597ED91FC9111970190C8
:102FE000F081E02D2FEF3FEF4FE050E064E1CD01A5
:102FF000DF91CF911F910F91FF90EF90DF90BF90E5
:10300000AF909F908F901994DC011D964D935D9326
:103010006D937C935097B8010E94DF0D8A819B814C
:10302000FC0116AA0190F081E02D0190F081E02DC5
:1030300020E030E0A90160E4199561E06E258A8105
:103040009B81DF91CF911F910F91FF90EF90DF90C7
:10305000BF90AF909F908F900C947D12C15EDC4E1C
:103060008C819D81009709F4B9C0FF2009F446C006
:1030700064EF71E00E94DF0D62E38C819D810E940C
:10308000C11260E08C819D810E949512AC81BD814E
:103090008FEF55968C93559756968C9356975796D7
:1030A0008C9157978F6057968C935797ED91FC9121
:1030B00011970190F081E02D2FEF3FEF4FE050E0AE
:1030C00064E1CD011995AC81BD8153968C915397E4
:1030D000816053968C93539752962C915297382F28
:1030E00054968C915497482F437050E0ED91FC9189
:1030F00011970190F081E02D60E079CFDC011D9601
:103100004D935D936D937C935097B8010E94DF0DB2
:1031100060E08C819D810E94C1126E2D8C819D8109
:10312000DF91CF911F910F91FF90EF90DF90BF90B3
:10313000AF909F908F900C9495128E819F810097F5
:1031400009F44CC0FF20C9F164EF71E00E94130F35
:1031500062E38E819F810E94C11260E08E819F8117
:103160000E949512AE81BF818FEF55968C93559733
:1031700056968C93569757968C9157978F60579683
:103180008C935797ED91FC9111970190F081E02D70
:103190002FEF3FEF4FE050E064E1CD011995AE8194
:1031A000BF8152968C915297806852968C93529719
:1031B000282F53963C91539793CFFC014587568710
:1031C0006787708BB8010E94130F60E08E819F812A
:1031D0000E94C1126E2D8E819F81A2CFDF91CF916F
:1031E0001F910F91FF90EF90DF90BF90AF909F9055
:1031F0008F9008952F923F924F925F926F927F929D
:103200008F929F92AF92BF92CF92DF92EF92FF92F6
:103210000F931F93CF93DF93CDB7DEB7EC970FB625
:10322000F894DEBF0FBECDBF2091F1133091F213A1
:1032300038AB2FA72115310509F436C2D9012D90DD
:103240003C9011972114310409F42EC2D1968C912F
:10325000D197811129C212968C91813009F024C234
:10326000F101EE5AF64F80813196208190E001966F
:10327000877099272817190609F444C1D101A05273
:10328000B84F9C91E257F1408081981709F43AC1F8
:103290009C918081981709F435C1B081BDABFE01C6
:1032A000399686E2DF011D928A95E9F7F101E2562F
:1032B000F64F208131814281538129AB3AAB4BAB30
:1032C0005CAB5DA9452F50E058AF4FAB81019DA984
:1032D00084E5989F000D111D1124F801EF5BFF4F4D
:1032E000C080D180E280F380D80199968D909D9026
:1032F000AD90BC909C9729A93AA94BA95CA92C1523
:103300003D054E055F0508F0E8C195964D905D902E
:103310006D907C909897CA01B9010E94775769AF68
:103320007AAF8BAF9CAFC701B6010E9477579B0164
:10333000AC0169AD7AAD8BAD9CAD0E940D5A6B01AD
:103340007C01A3019201C501B4010E9412599B01A5
:10335000AC01C701B6010E94D857A30192010E9497
:1033600013594B015C0120E030E040E251E4C5011B
:10337000B4010E94725787FF06C0812C912C50E245
:10338000A52E51E4B52E20E030E04AE754E4C50113
:10339000B4010E940D5A0E94865A6115710581057B
:1033A000910521F461E070E080E090E024E54FA910
:1033B00058AD249FF001259FF00D1124E20DF31D5F
:1033C000C1A0D2A0E3A0F4A02601370129A93AA9FF
:1033D0004BA95CA9421A530A640A750A641575055B
:1033E0008605970510F42B013C0184E54FA958ADE3
:1033F000849FF001859FF00D1124E20DF31D50A173
:103400005FAB9701860136952795179507953095FF
:103410002095109501951F4F2F4F3F4FDE011A96B3
:10342000FDA9F89FF0011124FEABEDAB90E080E028
:10343000EDA9FEA9E80FF91FE20DF31D408951899E
:103440006289738950964D935D936D937C935397E6
:103450000D931D932D933D9304968031910541F773
:1034600089A99AA9ABA9BCA9840D951DA61DB71D54
:10347000F101E256F64F8C159D05AE05BF0508F02B
:103480007AC180839183A283B3831DAAA1014E5187
:10349000584F5AAF49AFC1018E5A964F9AAB89AB7C
:1034A000DC010C9110E00F5F1F4F07701127F10135
:1034B000ED5AF64F8081801729F11C9149825A827A
:1034C0006B827C82C501B4010E94865A6D837E8323
:1034D0008F839887BFA9B987CAA6DBA6ECA6FDA6ED
:1034E000EDA9EEA78EE2A9ADBAAD819FA00DB11DE9
:1034F0001124FE01319601900D928A95E1F7A9A958
:10350000BAA90C9391012E51384FF101EE5AF64FA2
:103510005081BDEA2B1AB6EF3B0AF1014081809140
:10352000521390915313DC016D917C91541709F45F
:103530003AC150814EE2459F200D311D1124F90101
:10354000DE011196542F01900D925A95E1F7F90181
:10355000C480D580E680F7801085D1012C9130E0C1
:103560002F5F3F4F277033272C93CD82DE82EF826F
:10357000F8861987FE013196AFA5B8A91396019078
:103580000D924A95E1F721E0EFA5F8A921AB12AA27
:1035900013AA14AA15AA412F4170DB011896ED91C8
:1035A000FC9167E31995809152139091531311FB8D
:1035B000442740F9DC01ED91FC910084F185E02D78
:1035C0006DE31995809152139091531312FB442788
:1035D00040F9DC01ED91FC910084F185E02D60E380
:1035E0001995809152139091531313FB442740F97E
:1035F000DC01ED91FC910084F185E02D6CE11995E1
:103600008091521390915313DC01ED91FC91E25A99
:10361000FF4F0190F081E02D49E150E060E070E063
:103620001995C114D104E104F104C1F08091521341
:1036300090915313DC01ED91FC91028CF38DE02D00
:10364000B701A60119958091521390915313DC0193
:10365000ED91FC91048CF58DE02D1995EFA5F8A95D
:1036600084A595A5A6A5B7A5B695A7959795879581
:10367000B095A095909581959F4FAF4FBF4F86AB6A
:1036800097ABA0AFB1AF82AF93AFA4AFB5AFFE968B
:1036900080839183A283B383EFA5F8A9EE5BFF4FEC
:1036A00080839183A283B383EC960FB6F894DEBF38
:1036B0000FBECDBFDF91CF911F910F91FF90EF9083
:1036C000DF90CF90BF90AF909F908F907F906F9042
:1036D0005F904F903F902F900895F801E75BFF4F68
:1036E0004080518062807380D701C601840D951D92
:1036F000A61DB71D29A93AA94BA95CA92817390706
:103700004A075B0708F42FCECA01B9016C197D097D
:103710008E099F0964197509860997090E947757D0
:103720006B017C01F801EB5BFF4F6081718182814D
:1037300093810E9477579B01AC01C701B6010E949B
:103740000D5A6B017C01D8019D962D913D914D91B3
:103750005C91D097C501B4010E9412599B01AC0144
:10376000C701B6010E94D8579B01AC01C501B40145
:103770000E941259F6CD1082118212821382F10139
:10378000E052F84F908131968081981749F08081FE
:10379000808190E0019668E170E00E94FA5B80838E
:1037A00021E02DAB73CEEFA5F8A911AADB015E963F
:1037B000ED91FC911995EFA5F8A980819181FC010B
:1037C000E052F84F20818F51984FDC018C912813E3
:1037D0006BCFAFA5B8A912961C928091521390910D
:1037E0005313DC01ED91FC9106A0F7A1E02D199592
:1037F0008091521390915313DC01ED91FC91E85AA2
:10380000FF4F0190F081E02D1995EFA5F8A9E55B38
:10381000FF4F608371838283938346CFEF92FF9241
:103820000F931F93CF93DF93C091F113D091F213B5
:10383000209709F445C119A9112309F441C18EA9A2
:103840009FA9A8ADB9AD4C8D5D8D6E8D7F8D840F18
:10385000951FA61FB71F8EAB9FABA8AFB9AFE12CCA
:10386000181619061A061B066CF44CA55DA56EA564
:103870007FA5841B950BA60BB70B8EAB9FABA8AF98
:10388000B9AFE12E8AAD9BADACADBDAD48A159A19C
:103890006AA17BA1840F951FA61FB71F8AAF9BAF9C
:1038A000ACAFBDAFF12C181619061A061B066CF446
:1038B0004CA55DA56EA57FA5841B950BA60BB70B2C
:1038C0008AAF9BAFACAFBDAFF12EFE01FE968081FB
:1038D0009181A281B3814CA15DA16EA17FA1840FD2
:1038E000951FA61FB71F80839183A283B38300E037
:1038F000181619061A061B066CF44CA55DA56EA5D4
:103900007FA5841B950BA60BB70B80839183A283A5
:10391000B383012FFE01EE5BFF4F80819181A28175
:10392000B38148A559A56AA57BA5840F951FA61F3D
:10393000B71F80839183A283B383181619061A06D2
:103940001B060CF0BBC04CA55DA56EA57FA5841B16
:10395000950BA60BB70B80839183A283B383EE20D4
:1039600069F08091521390915313DC01ED91FC9119
:103970000084F185E02D41E066E31995FF2069F0B0
:103980008091521390915313DC01ED91FC910084CE
:10399000F185E02D41E06CE31995002369F08091F9
:1039A000521390915313DC01ED91FC910084F18549
:1039B000E02D41E06EE21995112369F080915213D8
:1039C00090915313DC01ED91FC910084F185E02D81
:1039D00041E06AE119958091521390915313DC01F3
:1039E000ED91FC91E25AFF4F0190F081E02D43E010
:1039F00050E060E070E01995EE2069F0809152137C
:103A000090915313DC01ED91FC910084F185E02D40
:103A100040E066E31995FF2069F080915213909180
:103A20005313DC01ED91FC910084F185E02D40E021
:103A30006CE31995002369F0809152139091531310
:103A4000DC01ED91FC910084F185E02D40E06EE217
:103A50001995112369F08091521390915313DC0151
:103A6000ED91FC910084F185E02D40E06AE119952B
:103A70008AA99BA9ACA9BDA90196A11DB11D8AABBC
:103A80009BABACABBDAB4B815C816D817E81841700
:103A90009507A607B707A0F019AA80915213909135
:103AA0005313DC01ED91FC91068CF78DE02DDF9135
:103AB000CF911F910F91FF90EF90199410E04FCF8D
:103AC000DF91CF911F910F91FF90EF9008950F9389
:103AD0001F93CF93DF938C01D62FFC01E15BFF4F47
:103AE0006083C1E0C6278091521390915313DC018B
:103AF000ED91FC910084F185E02D4C2F66E2199543
:103B00008091521390915313DC01ED91FC9100844C
:103B1000F185E02D4C2F68E3199580915213909117
:103B20005313DC01ED91FC910084F185E02D4C2FC5
:103B30006EE319958091521390915313DC01ED912E
:103B4000FC910084F185E02D4C2F68E11995DD236F
:103B5000A1F08091521390915313DC01ED91FC91EF
:103B6000E85AFF4F0190F081E02D1995F801E55BCF
:103B7000FF4F6083718382839383DF91CF911F9185
:103B80000F910895DC01A052B84F2C91FC01EF5128
:103B9000F84F8081281720F08C919081891B08951F
:103BA0008C919081885EFACFCF93C82F87EF95E1F3
:103BB0000E94C21DC817A0F48091D81D8C0F9927B0
:103BC000991F68E170E00E94FA5B44E5489F90010C
:103BD000499F300D1124C90189509A4ECF91089503
:103BE00090E080E0FBCFEF92FF920F931F93CF9373
:103BF000DF938C010C5A164FEB017B0180E1E80E3C
:103C0000F11CF80161917191819191918F010E9454
:103C10007957F80124853585468557850E940D5AC8
:103C20006993799389939993CE15DF0551F7DF91C5
:103C3000CF911F910F91FF90EF9008950F931F93D5
:103C4000CF93DF931F921F92CDB7DEB7AE014F5FC8
:103C50005F4F052E000C660B770B8091A61F90918D
:103C6000A71F009799F0092E000CAA0BBB0B8A0125
:103C70009B01081B190B2A0B3B0BC901B8010F90C4
:103C80000F90DF91CF911F910F9108958CEA9FE1E2
:103C9000EACF88E198E00FB6F894A8958093600089
:103CA0000FBE90936000FFCF4230510548F0440FA3
:103CB000551F440F551F45505109CA010197F1F78F
:103CC0000895CB01BA010C94550A0C94300A0C9457
:103CD000880A81E00895089508958FEF9FEF089571
:103CE00090E080E00895089580E0089584E593E1F0
:103CF0000C94780B84E593E10C942B0B84E593E111
:103D00000C94D10A84E593E10C94F30ACF92DF92EC
:103D1000EF92FF926A017B01E0916413F0916513C9
:103D200082E08083C11481EED806E104F104A1F0A1
:103D300060E079E08DE390E0A70196010E94E158F0
:103D400021503109410951095695479537952795D5
:103D5000211580E13807A8F0E0916413F091651314
:103D6000108260E874E88EE190E0A70196010E945D
:103D7000E158215031094109510956954795379528
:103D80002795E0916013F09161133083E091621305
:103D9000F0916313208310926C13E0916813F091FB
:103DA000691386E08083E0916613F0916713808148
:103DB00080618083E0916613F09167138081886051
:103DC0008083E0916613F09167138081806880831F
:103DD000E0916613F091671380818F7D8083FF905F
:103DE000EF90DF90CF90089578940895F894089517
:103DF000623071F0633081F08EEE860F843000F512
:103E000087E190E0861B9109833051F4E9980FC057
:103E100090E080E0EC980BC081E090E0ED9807C066
:103E2000843078F48130D1F38230A1F7E898880F9C
:103E3000991FFC01E75EFD4F84E99AE0918380833E
:103E40000895843021F0853029F7EB98F0CFEA9877
:103E5000EECF81E090E0233040F4E22FF0E0E55C2B
:103E6000FC4F8081082E000C990B623011F16330F9
:103E700019F12EEE260F243008F05EC027E130E065
:103E8000261B3109F901EE0FFF1FE75EFD4F51833D
:103E90004083233069F198F4213009F442C0223084
:103EA000F9F090916A009C7F892B80936A00EC9ACC
:103EB000089530E020E0E6CF21E030E0E3CF243089
:103EC00019F1253071F7209169002F7346E0880FB2
:103ED000991F4A95E1F7822B80936900EB9A089528
:103EE000909169009C7F892B80936900E89A0895DE
:103EF00020916900237F880F991F880F991F822BBB
:103F000080936900E99A0895209169002F7C54E01C
:103F1000880F991F5A95E1F7822B80936900EA9ADE
:103F2000089520916A00237F880F991F880F991F99
:103F3000822B80936A00ED9A0895E1E7F0E080819A
:103F40008D7F80830895E1E7F0E080818260808347
:103F500008957093D9126093D812F894109290003B
:103F6000E1E9F0E0108210929500109294008FE742
:103F70009EE390939900809398008081886080836D
:103F800080818160808378940895FC018581089503
:103F9000EFE6F0E020812D7F2083FC01158208955B
:103FA000EFE6F0E020812260208321E0FC01258300
:103FB00008959A01AB012115310541055105F1F034
:103FC00060E074E284EF90E00E94E158DA01C901F8
:103FD0000197A109B109009721E0A207B10578F482
:103FE0000097A105B10521F481E090E0A0E0B0E0E8
:103FF000F8949093890080938800789408958FEFC7
:104000009FEFA0E0B0E0F4CF7093D7126093D61288
:10401000F89410928000E1E8F0E0108210928500A0
:104020001092840080ED97E090938900809388003F
:104030008081886080838081816080837894089506
:104040002FEFFC012283209318020895FC01548372
:1040500043835093D5124093D41208951F93CF9366
:10406000DF93EC01162F242F30E0A8EEB3E00E947E
:10407000035924EB30E040E050E00E94AF58BA0111
:10408000A90148515C4F6F4F7F4FE881F981048847
:10409000F589E02D612FCE01DF91CF911F91199409
:1040A000262FFC0162836093180261E0822F0C943A
:1040B000F409663308F0665390917B00862F887070
:1040C000977F892B80937B006770606460937C008E
:1040D00080917A00806480937A0080917A0086FDD6
:1040E000FCCF809178009091790008950F931F93F1
:1040F000CF93DF93062F142FC42FD0E061E0802FE1
:104100000E94F409209741F460E0802FDF91CF9165
:104110001F910F910C94C609CF3FD10511F461E0B6
:10412000F4CFE02FF0E0E756FA4FE491E150E231AE
:1041300008F0B4C0F0E08827EF55FF4D8F4F0C9486
:104140000E5CB320BC20C120CB20D5204E21DF2027
:10415000E720EF20F92003210D211C2126214E21EB
:1041600030213A21442184B5806884BD17BDDF9198
:10417000CF911F910F91089584B5806284BD18BDC1
:10418000F6CF80918000806880938000D093890072
:10419000C0938800ECCF8091800080628093800083
:1041A000D0938B00C0938A00E2CF8091800088601A
:1041B00080938000D0938D00C0938C00D8CF8091E5
:1041C000B00080688093B0001093B300D0CF80918E
:1041D000B00080628093B0001093B400C8CF80918B
:1041E0009000806880939000D0939900C0939800CD
:1041F000BECF80919000806280939000D0939B000E
:10420000C0939A00B4CF8091900088608093900012
:10421000D0939D00C0939C00AACF8091A00080689D
:104220008093A0008091A0008F7B8093A000D0930A
:10423000A900C093A8009BCF8091A00080628093CA
:10424000A000D093AB00C093AA0091CF8091A000B2
:1042500088608093A000D093AD00C093AC0087CF5E
:1042600080912001806880932001D0932901C09320
:1042700028017DCF80912001806280932001D0931E
:104280002B01C0932A0173CF809120018860809315
:104290002001D0932D01C0932C0169CFC038D105E6
:1042A0000CF03DCF31CFCF93DF9370E0FB01E756A9
:1042B000FA4F8491FB01ED5AFA4FD491635F7A4F24
:1042C000FB01C491CC2379F081110E945F09EC2F8E
:1042D000F0E0EE0FFF1FE154FB4FA591B491EC917C
:1042E000ED2381E009F480E08170DF91CF910895A2
:1042F000862F642F0C94C609862F413039F018F0B0
:10430000423031F0089560E00C94F40961E0FCCF94
:1043100062E0FACF089508950895FC0163817481E5
:10432000858196810895FC0182810895FC01638155
:104330007481858196810895FC018281089510928F
:10434000D71D1092D81D1092491F10924A1F80E16C
:10435000EBE4FFE1DF01982F1D929A95E9F7E4E87D
:10436000FFE1DF011D928A95E9F71092941F1092E8
:10437000951F1092961F1092971F1092981F84E617
:104380008093831F08950F931F93CF93DF93CDB72F
:10439000DEB7C054D1090FB6F894DEBF0FBECDBF53
:1043A0008E010F5F1F4F6115710571F17F936F9340
:1043B0001F928F9381EB93E09F938F931F9280E4E2
:1043C0008F931F930F930E949E5C0FB6F894DEBFED
:1043D0000FBECDBF8091521390915313DC01ED912C
:1043E000FC91EA5BFF4F0190F081E02DB801199537
:1043F000C05CDF4F0FB6F894DEBF0FBECDBFDF91BC
:10440000CF911F910F9108951F928F938FEB93E09F
:104410009F938F931F9280E48F931F930F930E941B
:104420009E5CD3CFCF93DF93CDB7DEB7C058D10911
:104430000FB6F894DEBF0FBECDBF9E0126573F4F8B
:10444000C857DF4F48815981C858D04060E870E0B4
:10445000CE0101960E94DB5C809152139091531320
:10446000DC01ED91FC91EA5BFF4F0190F081E02DC2
:10447000BE016F5F7F4F1995C058DF4F0FB6F8949C
:10448000DEBF0FBECDBFDF91CF910895CF93DF93F5
:10449000CDB7DEB7C058D1090FB6F894DEBF0FBE56
:1044A000CDBF8091521390915313009771F1DC01AD
:1044B000ED91FC91EC5BFF4F0190F081E02DCA572C
:1044C000DF4F68817981C658D04019959E012657E3
:1044D0003F4FC857DF4F48815981C858D04060E8E6
:1044E00070E0CE0101960E94DB5C809152139091A6
:1044F0005313DC01ED91FC91EA5BFF4F0190F081D9
:10450000E02DBE016F5F7F4F1995C058DF4F0FB68A
:10451000F894DEBF0FBECDBFDF91CF9108950F930A
:104520001F93CF93DF93C2E5D3E1888199810BE19B
:1045300014E1D8012D913D914D915C91DC01ED91FB
:10454000FC9100ACF1ADE02D70E060E01995888140
:104550009981F8012481358146815781DC01ED91F3
:10456000FC9100ACF1ADE02D64E070E0199588811C
:104570009981F8012085318542855385DC01ED91D3
:10458000FC9100ACF1ADE02D68E070E019958881F8
:104590009981F8012485358546855785DC01ED91A3
:1045A000FC9100ACF1ADE02D6CE070E019958881D4
:1045B0009981F8012089318942895389DC01ED9183
:1045C000FC9100ACF1ADE02D60E170E019958881BF
:1045D0009981F8012489358946895789DC01ED9153
:1045E000FC9100ACF1ADE02D64E170E0199588819B
:1045F0009981F801208D318D428D538DDC01ED9133
:10460000FC9100ACF1ADE02D68E170E01995888176
:104610009981F801248D358D468D578DDC01ED9102
:10462000FC9100ACF1ADE02D6CE170E01995888152
:104630009981F80120A131A142A153A1DC01ED91A2
:10464000FC9100ACF1ADE02D60E270E0199588813D
:104650009981F80124A135A146A157A1DC01ED9172
:10466000FC9100ACF1ADE02D64E270E01995888119
:104670009981F80120A531A542A553A5DC01ED9152
:10468000FC9100ACF1ADE02D68E270E019958881F5
:104690009981F80124A535A546A557A5DC01ED9122
:1046A000FC9100ACF1ADE02D6CE270E019958881D1
:1046B0009981F80120A931A942A953A9DC01ED9102
:1046C000FC9100ACF1ADE02D60E370E019958881BC
:1046D0009981F80120AD31AD42AD53ADDC01ED91D2
:1046E000FC9100ACF1ADE02D64E370E01995888198
:1046F0009981F80124AD35AD46AD57ADDC01ED91A2
:10470000FC9100ACF1ADE02D68E370E01995888173
:10471000998120915B1430915C1440915D1450910B
:104720005E14DC01ED91FC9100ACF1ADE02D6CE389
:1047300070E0199588819981DC01ED91FC9104A8C4
:10474000F5A9E02D40915F1460E470E0199588812F
:104750009981DC01ED91FC9104A8F5A9E02D40912F
:10476000601461E470E0199588819981DC01ED9114
:10477000FC9104A8F5A9E02D4091611462E470E079
:10478000199588819981DC01ED91FC9104A8F5A926
:10479000E02D4091621463E470E01995888199815D
:1047A00003E614E1DC01ED91FC9104A8F5A9E02DEC
:1047B000D8014C9164E470E0199588819981F801E1
:1047C0004181DC01ED91FC9104A8F5A9E02D65E49F
:1047D00070E0199588819981DC01ED91FC9104A824
:1047E000F5A9E02D4091651466E470E01995888183
:1047F0009981DC01ED91FC9104A8F5A9E02D40918F
:10480000661467E470E0199588819981DC01ED9167
:10481000FC9104A8F5A9E02D4091671468E470E0CC
:10482000199588819981DC01ED91FC9104A8F5A985
:10483000E02D4091681469E470E0199588819981B0
:10484000DC01ED91FC9104A8F5A9E02D40916914DB
:104850006AE470E0199588819981DC01ED91FC9101
:1048600004A8F5A9E02D40916A146BE470E0199555
:1048700088819981DC01ED91FC9104A8F5A9E02DD6
:1048800040916B146CE470E01995888199810CE675
:1048900014E1DC01ED91FC9104A8F5A9E02DD8010B
:1048A0004C916DE470E0199588819981F8014181FE
:1048B000DC01ED91FC9104A8F5A9E02D6EE470E017
:1048C0001995888199810EE614E1DC01ED91FC9146
:1048D00004A8F5A9E02DD8014C916FE470E019957A
:1048E00088819981F8014181DC01ED91FC9104A856
:1048F000F5A9E02D60E570E019958881998100E7C0
:1049000014E1DC01ED91FC9104A8F5A9E02DD8019A
:104910004C9161E570E0199588819981F801418198
:10492000DC01ED91FC9104A8F5A9E02D62E570E0B1
:10493000199588819981DC01ED91FC9104A8F5A974
:10494000E02D4091721463E570E01995888199819A
:10495000DC01ED91FC9104A8F5A9E02D40917314C0
:1049600064E570E0199588819981DC01ED91FC91F5
:1049700004A8F5A9E02D4091741465E570E019953F
:1049800088819981DC01ED91FC9104A8F5A9E02DC5
:104990004091751466E570E0199588819981DC0174
:1049A000ED91FC9104A8F5A9E02D4091761467E5FE
:1049B00070E0199588819981DC01ED91FC9104A842
:1049C000F5A9E02D4FE464E670E01995888199819E
:1049D000DC01ED91FC9102ACF3ADE02D199588EC72
:1049E00093E09F938F9383EE93E09F938F930E9426
:1049F00046220F900F900F900F90DF91CF911F9153
:104A00000F910895AF92BF92CF92DF92EF92FF92F3
:104A10000F931F93CF93C82F81E0809381156CE78C
:104A200075E18C2F0E940B08882339F1FCE7AF2E2B
:104A3000F5E1BF2EAFE1CA2EA8E0DA2E10EDE12E8F
:104A400012E0F12E00E010E025E535E545E851E4FF
:104A500061E08C2F0E94FC068091521390915313B9
:104A6000DC01ED91FC91E45AFF4F0190F081E02DC3
:104A70004AE050E060E070E019956CE7A62E65E131
:104A8000B62E7BE0C72E78E0D72E10EAE12E1CE888
:104A9000F12E00E010E025E535E545E851E460E061
:104AA0008C2F0E94FC0680918315882359F085E0A5
:104AB000CF911F910F91FF90EF90DF90CF90BF901B
:104AC000AF9008956CE775E18C2F0E940B0881115F
:104AD00014C01F92CF938AEE93E09F938F938FE041
:104AE00094E09F938F930E9446220F900F900F9017
:104AF0000F900F900F9081E0DBCF80915213909137
:104B00005313DC01ED91FC91E45AFF4F0190F081C9
:104B1000E02D4AE050E060E070E0199582E080937B
:104B200081153CE7A32E35E1B32E4FE1C42E48E0BA
:104B3000D42E10EFE12EF12C00E010E025E535E554
:104B400045E851E461E08C2F0E94FC0680918315BA
:104B50008111ADCF8091521390915313DC01ED91EF
:104B6000FC91E45AFF4F0190F081E02D4AE050E0C3
:104B700060E070E0199583E0809381159BE0C92E79
:104B800098E0D92E10EDE12E12E0F12E00E010E0B9
:104B900025E535E545ED5FE360E08C2F0E94FC06DE
:104BA00080918315811183CFB5018C2F0E940B0852
:104BB000811105C01F92CF9386E194E08ECF809142
:104BC000521390915313DC01ED91FC91E45AFF4F85
:104BD0000190F081E02D4AE050E060E070E019952E
:104BE000B12CA12CD12CC12C10EFE12EF12C00E026
:104BF00010E025E535E545ED5FE361E08C2F0E948F
:104C0000FC061F92CF9389E494E09F938F9383EEE9
:104C100093E09F938F930E9446220F900F900F90E6
:104C20000F900F900F9080E043CF6F927F928F9202
:104C30009F92AF92BF92CF92DF92EF92FF920F932B
:104C40001F93CF93DF9300D000D01F921F92CDB758
:104C5000DEB7982E88E0EFE2F2E0DE0111960190D7
:104C60000D928A95E1F7092D10E0F801EE0FFF1F74
:104C700081E090E08C0F9D1FE80FF91F81818F93D9
:104C800080818F9382E694E09F938F9343EE642E0E
:104C900043E0742E7F926F920E94462281E08093BF
:104CA00081150F900F900F900F900F900F90F09034
:104CB0008015F812E9C0F801E25AFC4F8081835058
:104CC0008330C0F01F929F9282E794E09F938F936E
:104CD00081ED94E09F938F930E944622892D0E943C
:104CE00002250F900F900F900F900F900F90811151
:104CF00079C0B2C061E0892D0E947717809152136C
:104D000090915313DC01ED91FC91E45AFF4F019017
:104D1000F081E02D42E350E060E070E01995F80189
:104D2000EE59FC4F80808091521390915313DC0117
:104D3000ED91FC910680F781E02D40E0682D1995FA
:104D4000109251138091521390915313DC01ED9105
:104D5000FC9100A4F1A5E02D20E044E258E0682D8C
:104D60001995F0928115B12CA12C98E2C92E98E0EA
:104D7000D92E10EAE12E1CE8F12E00E010E020E030
:104D800030E040E252E460E0892D0E94FC06809110
:104D9000521390915313DC01ED91FC9102A4F3A501
:104DA000E02D682D199560E0892D0E94771780917C
:104DB000831581116DC080915113811115C01F920F
:104DC0009F9288ED94E09F938F938FE094E09F9360
:104DD0008F930E9446220F900F900F900F900F908C
:104DE0000F9082E095E039C082E0809381151092A7
:104DF00051138091521390915313DC01ED91FC916A
:104E0000E45AFF4F0190F081E02D44E650E060E06D
:104E100070E01995B12CA12CD12CC12C10EFE12EF2
:104E2000F12C00E010E020E030E040EA51E461E0E5
:104E3000892D0E94FC061F929F928AE095E09F9325
:104E40008F937F926F920E9446220F900F900F9047
:104E50000F900F900F9080E094E09093811528962A
:104E60000FB6F894DEBF0FBECDBFDF91CF911F917B
:104E70000F91FF90EF90DF90CF90BF90AF909F90F9
:104E80008F907F906F900895892D0E9402252FCFDB
:104E900085E0A8CFAF92BF92CF92DF92FF920F939F
:104EA0001F93CF93DF93CDB7DEB760970FB6F8941B
:104EB000DEBF0FBECDBF1092831510928215809178
:104EC0008015882309F487C08FE395E09F938F9323
:104ED0008AE495E09F938F9383EE93E09F938F9363
:104EE0000E94462261E080917C1590917D150E9480
:104EF000671D8091521390915313DC01ED91FC9149
:104F0000E45AFF4F0190F081E02D42E350E060E071
:104F100070E0199580E00E941526F82E0F900F90F2
:104F20000F900F900F900F90811144C081E00E946C
:104F30001526F82E81113EC081E080938215FE0176
:104F4000319680E1DF011D928A95E9F7C0907E15C8
:104F5000D0907F158F015601BCEAAB1AB6EFBB0AA1
:104F6000ECE9CE1AE6EFDE0AD8016D917D918D91C4
:104F70009D918D01F50120893189428953890E94D3
:104F8000D8570E947F5AD5016D937D938D939D9341
:104F90005D01AC15BD0541F785E695E09F938F93C4
:104FA00083EE93E09F938F930E9446220F900F9081
:104FB0000F900F908F2D60960FB6F894DEBF0FBE46
:104FC000CDBFDF91CF911F910F91FF90DF90CF90D8
:104FD000BF90AF90089586E395E078CF8091A915B2
:104FE000813089F482E08093A91586E795E09F934C
:104FF0008F9383EE93E09F938F930E9446220F90AE
:105000000F900F900F9008958091A915813009F1AC
:1050100061E087EA95E10E94671D81E08093A91510
:105020008091521390915313DC01ED91FC9104A0F7
:10503000F5A1E02D199589E895E09F938F9383EE74
:1050400093E09F938F930E9446220F900F900F90B2
:105050000F900895CF93DF93EC01809152139091BC
:105060005313DC01ED91FC910088F189E02D6BE098
:105070001995E881F9810084F185E02DCE0119951B
:105080008A858F9389858F9388851F928F938F81CF
:105090001F928F9381EA95E09F938F9383EE93E025
:1050A0009F938F930E9446228DB79EB70A960FB6A4
:1050B000F8949EBF0FBE8DBFDF91CF9108950F93DF
:1050C0001F93CF93DF93EC0102960E942A2802E5FA
:1050D00013E1D8018D919C91DC01ED91FC9106804A
:1050E000F781E02D41E06AE11995F8018081918115
:1050F000DC01ED91FC910680F781E02D41E06CE14F
:105100001995F80180819181DC01ED91FC91068077
:10511000F781E02D41E068E11995F80180819181E6
:10512000DC01ED91FC910084F185E02D40E068E127
:1051300019958D8D8F938C8D8F938B8D8F938A8DF9
:105140008F93898D8F93888D8F938F898F938E897D
:105150008F9386ED95E09F938F9383EE93E09F93DB
:105160008F930E944622EDB7FEB73C960FB6F89497
:10517000FEBF0FBEEDBFDF91CF911F910F9108953C
:10518000CF93DF93C2E5D3E188819981DC01ED9172
:10519000FC910680F781E02D41E069E01995888156
:1051A0009981DC01ED91FC910484F585E02D40E0CE
:1051B00069E019951F9289E08F9381E196E09F93B2
:1051C0008F9383EE93E09F938F930E9446220F90DC
:1051D0000F900F900F900F900F90DF91CF91089547
:1051E0000F931F93CF93DF938C01C2E5D3E18881A6
:1051F0009981DC01ED91FC91068CF78DE02D1995DC
:1052000088819981DC01ED91FC9106A0F7A1E02D48
:10521000199588819981DC01ED91FC910084F185DB
:10522000E02D40E066E3199588819981DC01ED91DC
:10523000FC910084F185E02D40E06CE319958881B4
:105240009981DC01ED91FC910084F185E02D40E035
:105250006EE2199588819981DC01ED91FC910084C1
:10526000F185E02D40E06AE11995F801128211AA5A
:1052700012AA13AA14AA15AA86E396E09F938F9305
:1052800081ED94E09F938F930E9446220F900F90A0
:105290000F900F90DF91CF911F910F9108958F92F2
:1052A0009F92AF92BF92CF92DF92EF92FF920F93B5
:1052B0001F93CF93DF93CDB7DEB7C059D1090FB697
:1052C000F894DEBF0FBECDBF813209F4E0C0BCF45C
:1052D000883109F4DFC0C057DF4F0FB6F894DEBF46
:1052E0000FBECDBFDF91CF911F910F91FF90EF9037
:1052F000DF90CF90BF90AF909F908F9008958F33A5
:1053000019F18E3741F78091A915823021F781E09C
:105310008093A9158091521390915313DC01ED9164
:10532000FC9104A0F5A1E02D199582E896E09F93E9
:105330008F9383EE93E09F938F930E9446220F906A
:105340000F900F900F90C7CF8E010F571F4F80E126
:10535000D8011D928A95E9F7809115149091161441
:10536000009719F0B8010E94F31D809115149091D7
:105370001614F12C009729F00E94C21D97E1F92E16
:10538000F81A809117149091181470E060E000975B
:1053900049F0DC01ED91FC910484F585E02D19952F
:1053A000682F70E04F2D50E0F801C084B184A284D2
:1053B0009384B481F580E680D7808081918182805A
:1053C000A38120911114273008F05EC030E0220F35
:1053D000331F235D3C4FF901208131817F936F930F
:1053E0001F921F921F921F925F934F939F92AF92B3
:1053F000BF92CF92DF92EF92FF92BF93AF938F92C3
:105400009F938F933F932F9386E596E09F938F937F
:105410001F9280E88F938E010F5F1F4F1F930F9392
:105420000E949E5C8091521390915313DC01ED9188
:10543000FC91EC5BFF4F0190F081E02D6EE776E090
:1054400019958091521390915313DC01ED91FC91C9
:10545000EC5BFF4F0190F081E02DB8011995809130
:10546000521390915313DC01ED91FC91EA5BFF4FD5
:105470000190F081E02D60E876E019950FB6F89480
:10548000DEBF0FBECDBF27CF2EE436E0A7CF0E94F0
:10549000EE2721CF87EA95E10E94F0280E949F2104
:1054A00080913F1390914013009739F0DC01ED910A
:1054B000FC910084F185E02D199510929A1F81E0EE
:1054C00080939B1F10929C1F10929D1F80E090E084
:1054D000AAE7B4E480939E1F90939F1FA093A01F00
:1054E000B093A11F80E090E0A0E0B3E48093A21FFE
:1054F0009093A31FA093A41FB093A51F1092111403
:1055000083E996E00E94E103E6CE2F923F924F920C
:105510005F926F927F928F929F92AF92BF92CF9243
:10552000DF92EF92FF920F931F93CF93DF93CDB74C
:10553000DEB7CE5AD1090FB6F894DEBF0FBECDBF8D
:10554000E82F392F4A015B018091D71D4091D81D6A
:1055500090E0019668E170E00E94FA5B4817190636
:1055600009F421C7C555DF4FC882D982EA82FB8280
:10557000CB5AD040C655DF4F0883CA5AD040CB55CE
:10558000DF4F2883C55AD040CA55DF4F88829982A1
:10559000AA82BB82C65AD0402E2F8E010F5F1F4FAA
:1055A000CB57DF4F19830883C558D04084E5D80115
:1055B0001D928A95E9F7DE01AB5ABF4F80E1FD01EC
:1055C00011928A95E9F7C557DF4F2883CB58D04011
:1055D000C457DF4F3883CC58D0400BE41FE1CD5582
:1055E000DF4F19830883C35AD0408E010B581F4FD9
:1055F000CD56DF4F19830883C359D0401E0115E6ED
:10560000210E311CCF55DF4F39822882C15AD0403C
:105610008E010F5F1F4FC157DF4F19830883CF588B
:10562000D040CD56DF4F08811981C359D040C356B1
:10563000DF4F19830883CD59D0400BE41FE1C756D3
:10564000DF4F19830883C959D040C956DF4F1882EC
:10565000C759D040812C912C5401C957DF4F198272
:105660001882C758D040C557DF4FA881B981CB58A1
:10567000D0406D917D918D919D91C557DF4FB9833C
:10568000A883CB58D040C756DF4F08811981C9592C
:10569000D040F8014088518862887388A301920144
:1056A0000E94D8570E94695B0E947F5AC356DF4F01
:1056B000A881B981CD59D0406D937D938D939D93F1
:1056C000C356DF4FB983A883CD59D040F80100817C
:1056D0001181228133813496C756DF4FF983E883E5
:1056E000C959D0406B017C01C01AD10AE20AF30A01
:1056F000C157DF4FA881B981CF58D0405096CD9285
:10570000DD92ED92FC925397FD0161937193819329
:105710009193C157DF4FF983E883CF58D040C70139
:10572000B6010E947957A30192010E940D5ACF55EC
:10573000DF4FA881B981C15AD0406D937D938D937D
:105740009D93CF55DF4FB983A883C15AD0409B01A9
:10575000AC010E94D8579B01AC01C501B4010E9465
:1057600013594B015C01F7FE2BC081E090E0C95753
:10577000DF4F0880C758D04002C0880F991F0A9495
:10578000E2F7C956DF4F0881C759D040082BC956E8
:10579000DF4F0883C759D040F094E094D094C09470
:1057A000C11CD11CE11CF11CC157DF4FA881B9817C
:1057B000CF58D0401C96CD92DD92ED92FC921F976F
:1057C000C957DF4F08811981C758D0400F5F1F4F5D
:1057D000C957DF4F19830883C758D04004301105DB
:1057E00009F041CFC501B4010E949B5BC957DF4F4F
:1057F000688379838A839B83C758D04027E137EB3E
:1058000041ED58E30E94725787FF1BC081E0C255EB
:10581000DF4F0FB6F894DEBF0FBECDBFDF91CF9143
:105820001F910F91FF90EF90DF90CF90BF90AF90BE
:105830009F908F907F906F905F904F903F902F90B0
:1058400008953E0115E5610E711C710120E1E20E23
:10585000F11C8301D1016D917D918D919D911D016F
:10586000C957DF4F288139814A815B81C758D040B1
:105870000E940D5AF80161937193819391938F0166
:105880002E143F0439F71E01F1E12F0E311C81E087
:1058900090E08C0F9D1F8096F101C557DF4F188255
:1058A00019821A821B82CB58D0404191519161914B
:1058B0007191C557DF4F088119812A813B81CB58EF
:1058C000D040041715072607370740F4C557DF4FA8
:1058D000488359836A837B83CB58D040E817F90704
:1058E00021F76091831F70E090E080E00E9477577D
:1058F000CA55DF4F288139814A815B81C65AD04021
:105900000E94D85720E030E048EC52E40E940D5A43
:10591000C756DF4F688379838A839B83C959D040F8
:10592000CB55DF4F1881C55AD040112309F455C11A
:1059300010E000E0812C84E2982E94E7A92E29E45F
:10594000B22ED301CD90DD90ED90FD903D01E89415
:10595000F7F82FE632E143E85AE3C701B6010E94A7
:105960005C5B1816DCF420E030E040E752E4F8011C
:10597000E559F04E60817181828193810E940D5AB8
:10598000A70196010E940D5A6B017C019401A501AB
:105990000E94725787FF02C0460157010C5F1F4FDC
:1059A0000031110571F6C557DF4F688179818A8111
:1059B0009B81CB58D0400E947757C957DF4F288131
:1059C00039814A815B81C758D0400E940D5A9401A9
:1059D000A5010E94D8577B018C0120917B1F30913B
:1059E0007C1F40917D1F50917E1FC356DF4F28833F
:1059F00039834A835B83CD59D040C557DF4F6881D7
:105A000079818A819B81CB58D0400E9477574B0186
:105A10005C018091941F882309F424C144E85FE16C
:105A2000C157DF4F59834883CF58D040412C512C68
:105A30003201D12CC12CC956DF4F9881C759D040B3
:105A4000892F90E0CF55DF4F99838883C15AD0408A
:105A5000D1016D917D918D919D911D010E9479578C
:105A6000CF55DF4F28813981C15AD0400C2C02C05C
:105A7000359527950A94E2F720FD9058A5019401E9
:105A80000E940D5A9B01AC01C157DF4FE881F9819B
:105A9000CF58D0406191719181919191C157DF4F61
:105AA000F983E883CF58D0400E94D8579B01AC01BE
:105AB000C301B2010E9413592B013C01FFEFCF1A21
:105AC000DF0A24E0C216D10419F620E030E040E8F5
:105AD0005FEB0E94725787FDC5C020E030E040E8D0
